:020000040800F2
:100000002008002079020008A94D0008D546000804
:10001000A54D0008810400080565000800000000E7
:10002000000000000000000000000000B94E0008C1
:100030006505000800000000194E0008114F000877
:10004000930200089302000893020008930200083C
:10005000930200089302000893020008930200082C
:100060009302000893020008930200088504000828
:10007000930200089302000893020008930200080C
:1000800093020008000000007104000893020008B9
:1000900093020008930200089302000893020008EC
:1000A00093020008A14F0008930200089302000881
:1000B00093020008930200089302000893020008CC
:1000C00093020008930200089302000893020008BC
:1000D00093020008F56400089302000893020008E8
:1000E000930200089302000893020008930200089C
:1000F0009302000893020008930200080000000029
:1001000000000000930200080000000093020008B5
:100110009302000800000000930200089302000808
:10012000930200089302000893020008930200085B
:100130009302000800000000000000009302000885
:100140009302000893020008000000000000000075
:10015000000000000000000000000000000000009F
:1001600000000000000000000000000093020008F2
:1001700093020008000000000000000000000000E2
:1001800000000000930200080000000000000000D2
:10019000000000000000000000000000000000005F
:1001A0000000000000000000930200089302000815
:1001B0009302000893020008930200080000000068
:1001C0000000000093020008000000000000000092
:1001D000930200089302000800F002F800F03CF8D7
:1001E0000AA090E8000C82448344AAF10107DA4592
:1001F00001D100F031F8AFF2090EBAE80F0013F0A8
:10020000010F18BFFB1A43F00103184740640000B8
:1002100060640000103A24BF78C878C1FAD8520749
:1002200024BF30C830C144BF04680C607047000070
:100230000023002400250026103A28BF78C1FBD8EF
:10024000520728BF30C148BF0B6070471FB506F08A
:10025000CFF91FBD10B510BD00F0D0F81146FFF763
:10026000F5FF06F0B1F900F0EEF803B4FFF7F2FF86
:1002700003BC00F0F5F80000094880470948004732
:10028000FEE7FEE7FEE7FEE7FEE7FEE7FEE7FEE746
:10029000FEE7FEE704480549054A064B70470000A3
:1002A0008D4F0008D90100082002002020080020FE
:1002B000200400202004002053EA020C00F0698092
:1002C0002DE9F04B4FF00006002B1FBFB3FA83F56A
:1002D00003FA05F424FA05F65E4012BF1643B2FA9B
:1002E00082F502FA05F4C5F120051EBF22FA05FCCD
:1002F00044EA0C04203556EA044C4FEA144418BF73
:10030000641C4FF000084FF00009904271EB030CA1
:1003100039D3002919BFB1FA81F701FA07F6B0FA0B
:1003200080F700FA07F6C7F120071EBF20FA07FC86
:1003300046EA0C062037B6FBF4FCA7EB0507103F96
:1003400007F01F0BCBF120062CFA06F60CFA0BFB7C
:1003500044BFB3460026202FA4BF5E464FF0000BDB
:100360005BEA060C08BF4FF0010B19EB0B0948EBD9
:100370000608ABFB027C06FB02CC0BFB03CCC01BCC
:1003800071EB0C01C1E70B46024641464846BDE809
:10039000F08B13B5084318BF4FF0FF300146AFF3A1
:1003A0000080BDE81C4070474FF0000200B51346C6
:1003B00094469646203922BFA0E80C50A0E80C5085
:1003C000B1F12001BFF4F7AF090728BFA0E80C5036
:1003D00048BF0CC05DF804EB890028BF40F8042B2F
:1003E00008BF704748BF20F8022B11F0804F18BF9C
:1003F00000F8012B7047704770477047754600F052
:100400002BF8AE4605006946534620F007008546A6
:1004100018B020B5FFF73EFFBDE820404FF00006C2
:100420004FF000074FF000084FF0000BAC46ACE86F
:10043000C009ACE8C009ACE8C009ACE8C00921F0CB
:1004400007018D46704710B50446AFF30080204683
:10045000BDE81040FFF709BF0048704710000020BA
:1004600001491820ABBEFEE72600020070470000DD
:1004700080B540F27000C2F2000000F08DFC80BD3B
:10048000FFE7FEE780B540F2DC00C2F2000001F0B9
:10049000E7F980BD84B003900398006840F20741FB
:1004A000C4F20201884211D8FFE740F60000C4F20E
:1004B000020000900398007808384CF6CD41CCF645
:1004C000CC41A0FB01100009019012E040F6200091
:1004D000C4F2020000900398007808384CF6CD4131
:1004E000CCF6CC41A0FB0101062000EB11100190DD
:1004F000FFE700980290029803994A6C22F00302E9
:1005000010448864039940F68000C4F20200C86475
:10051000019800F01F01012088400399086504B08C
:100520007047000082B001900198406800F07F00A1
:100530000090009940F6FC00C4F2020000EB81003C
:1005400001994865019940F64010C4F2020088659F
:100550000098013800F01F01012088400199C8650A
:1005600002B070477047000081B0EFF3108072B6A0
:100570000090FFE7FEE7000081B0009001B07047F7
:1005800081B0009001B0704781B0009001B0704719
:1005900081B0009001B0704781B0009001B0704709
:1005A00080B5C0B020901F9100208DF87B001B907B
:1005B0001F98C0680021C4F27F01884201D0FFE784
:1005C00000E0FFE7FFE7209890F85800012804D1E9
:1005D000FFE702208DF88700D2E32099012081F8FF
:1005E0005800FFE7FFE72098006804F0E5F80028CE
:1005F00040F0B283FFE7209800681F990A684968B5
:1006000004F0EEF82098006804F0D6F81A902098CC
:10061000006804F0A5F819901A98002840F0B881F5
:10062000FFE71998002840F0B381FFE71F98806822
:10063000B0F1004F0ED1FFE7209800681F990968BC
:10064000002204F0EBF8209800684FF0004104F01D
:1006500091F90CE0209800681F9A1168926804F0E4
:10066000DDF820980068002104F084F9FFE71F9866
:10067000406920990968C96801F018018908884013
:100680001D901F98006904281CD0FFE7209800687F
:100690001F990A6809691D9B04F012F920980068E7
:1006A0001F9A1169926904F03DF9209800681F9A19
:1006B0001169127F013AB2FA82F25209520604F02D
:1006C0001DF964E120980068002104F039F8400326
:1006D00048B9FFE720980068002104F031F8C0F322
:1006E0008460189018E020980068002104F028F831
:1006F00090FAA0F02290229820B9FFE720208DF8F0
:100700008F0005E02298B0FA80F08DF88F00FFE7A7
:100710009DF88F001890FFE7189817901F980068B1
:10072000400330B9FFE71F980068C0F3846016905B
:1007300015E01F98006890FAA0F02490249820B942
:10074000FFE720208DF8970005E02498B0FA80F0AC
:100750008DF89700FFE79DF897001690FFE7179830
:100760001699884207D1FFE72098006800221146B9
:1007700004F0ECF8FFE720980068012103F0E0FFA7
:10078000400348B9FFE720980068012103F0D8FF33
:10079000C0F38460159018E020980068012103F0F0
:1007A000CFFF90FAA0F02690269820B9FFE72020EE
:1007B0008DF89F0005E02698B0FA80F08DF89F0034
:1007C000FFE79DF89F001590FFE7159814901F987C
:1007D0000068400330B9FFE71F980068C0F38460E9
:1007E000139015E01F98006890FAA0F028902898C0
:1007F00020B9FFE720208DF8A70005E02898B0FA7F
:1008000080F08DF8A700FFE79DF8A7001390FFE7A1
:1008100014981399884207D1FFE7209800680121B6
:10082000002204F093F8FFE720980068022103F00B
:1008300087FF400348B9FFE720980068022103F0D2
:100840007FFFC0F38460129018E0209800680221B6
:1008500003F076FF90FAA0F02A902A9820B9FFE7DB
:1008600020208DF8AF0005E02A98B0FA80F08DF8CE
:10087000AF00FFE79DF8AF001290FFE712981190CC
:100880001F980068400330B9FFE71F980068C0F365
:100890008460109015E01F98006890FAA0F02C90EA
:1008A0002C9820B9FFE720208DF8B70005E02C98A0
:1008B000B0FA80F08DF8B700FFE79DF8B700109010
:1008C000FFE711981099884207D1FFE72098006848
:1008D0000221002204F03AF8FFE720980068032183
:1008E00003F02EFF400348B9FFE72098006803217A
:1008F00003F026FFC0F384600F9018E02098006892
:10090000032103F01DFF90FAA0F03C903C9820B921
:10091000FFE720208DF8F70005E03C98B0FA80F062
:100920008DF8F700FFE79DF8F7000F90FFE70F98AD
:100930000E901F980068400330B9FFE71F980068C9
:10094000C0F384600D9015E01F98006890FAA0F045
:100950003E903E9820B9FFE720208DF8FF0005E08B
:100960003E98B0FA80F08DF8FF00FFE79DF8FF0099
:100970000D90FFE70E980D99884207D1FFE7209868
:1009800000680321002203F0E1FFFFE7FFE7FFE734
:100990002098006803F000FF002840F04481FFE742
:1009A000209800681F9A1168D26803F053FF1F98BF
:1009B000C0680021C4F27F01884240F03381FFE724
:1009C000209800680C901F980068400330B9FFE73A
:1009D0001F980068C0F384600B9015E01F980068B2
:1009E00090FAA0F03A903A9820B9FFE720208DF8CD
:1009F000EF0005E03A98B0FA80F08DF8EF00FFE7DD
:100A00009DF8EF000B90FFE70B98013000F01F00FE
:100A100009287DD8FFE71F980068400330B9FFE739
:100A20001F980068C0F384600A9015E01F98006862
:100A300090FAA0F03890389820B9FFE720208DF880
:100A4000E70005E03898B0FA80F08DF8E700FFE79E
:100A50009DF8E7000A90FFE70A98013000F01F00B8
:100A6000800609901F980068400330B9FFE71F987F
:100A70000068C0F38460089015E01F98006890FA41
:100A8000A0F03690369820B9FFE720208DF8DF00DF
:100A900005E03698B0FA80F08DF8DF00FFE79DF8AA
:100AA000DF000890FFE709980899013101F01F0263
:100AB00001219140084307901F980068400330B916
:100AC000FFE71F980068C0F38460069015E01F9848
:100AD000006890FAA0F03490349820B9FFE7202005
:100AE0008DF8D70005E03498B0FA80F08DF8D70083
:100AF000FFE79DF8D7000690FFE7079806990131B8
:100B000001F01F0101EB410140EA0150059082E034
:100B10001F980068400330B9FFE71F980068C0F3D2
:100B20008460049015E01F98006890FAA0F032905D
:100B3000329820B9FFE720208DF8CF0005E03298E9
:100B4000B0FA80F08DF8CF00FFE79DF8CF00049059
:100B5000FFE70498013000F01F00800603901F9803
:100B60000068400330B9FFE71F980068C0F3846055
:100B7000029015E01F98006890FAA0F0309030982D
:100B800020B9FFE720208DF8C70005E03098B0FAC3
:100B900080F08DF8C700FFE79DF8C7000290FFE7DF
:100BA00003980299013101F01F020121914008438D
:100BB00001901F980068400330B9FFE71F98006854
:100BC000C0F38460009015E01F98006890FAA0F0D0
:100BD0002E902E9820B9FFE720208DF8BF0005E069
:100BE0002E98B0FA80F08DF8BF00FFE79DF8BF00A7
:100BF0000090FFE701990098013000F01F0000EB22
:100C000040020020CFF6206000EB0250084340F085
:100C100000700590FFE70C9805991F9A926803F001
:100C2000FDFDFFE7FFE71F98408848F208010842F2
:100C300000F09180FFE740F20030C5F2000003F0C1
:100C400067FD1C901F9800680021CCF2213188427A
:100C500008D0FFE71F9800681021C9F2C001884240
:100C600032D1FFE79DF87200000600282CD4FFE780
:100C700020980068B0F1A04F25D1FFE71C9840F400
:100C8000000140F20030C5F2000003F00BFE40F21C
:100C90000000C2F200000068800942F66351C0F211
:100CA0003E51A0FB0110800900EB40010C2000EB3D
:100CB00081001B90FFE71B9820B1FFE71B980138CC
:100CC0001B90F8E7FFE745E01F9800680021CCF291
:100CD0005271884219D1FFE79DF87300C007A0B98F
:100CE000FFE72098006840F20011C5F20001884239
:100CF0000AD0FFE71C9840F0807140F20030C5F246
:100D0000000003F0CFFDFFE723E01F9800680021FB
:100D1000CCF6843188421AD1FFE79DF87200400674
:100D2000002814D4FFE72098006840F20011C5F2B3
:100D3000000188420AD0FFE71C9840F4800140F28D
:100D40000030C5F2000003F0ADFDFFE700E0FFE773
:100D5000FFE7FFE7FFE708E02099C86D40F02000BB
:100D6000C86501208DF87B00FFE7FFE72099002090
:100D700081F85800FFE79DF87B008DF88700FFE7BA
:100D80009DF8870040B080BD81B0009001B07047F1
:100D900081B0009001B0704780B58EB00D900020FA
:100DA0000C900D98006800680B900D9800684068E2
:100DB0000A9040F20030C5F2000003F0B9FC059043
:100DC0009DF82C00800700281AD5FFE79DF8280021
:100DD0008007002814D5FFE70D98C06DC0060028D5
:100DE00006D4FFE70D99C86D40F40060C865FFE7C1
:100DF0000D98FFF7C1FB0D98016802200860FFE71E
:100E00009DF82C004007002806D5FFE70A9800F05F
:100E1000040004280ED0FFE79DF82C0000070028EE
:100E200040F19B80FFE79DF828000007002840F173
:100E30009480FFE70D98C06DC006002806D4FFE738
:100E40000D99C86D40F40070C865FFE70D98006803
:100E500003F0BAFC002878D0FFE70D98006840F254
:100E60000011C5F20001884204D1FFE74FF0A04015
:100E7000049003E00D9800680490FFE704980D9932
:100E8000096888420BD0FFE7059840B1FFE7059855
:100E9000052804D0FFE70598092805D1FFE70D983C
:100EA0000068C068079016E00D98006840F20011D5
:100EB000C5F20001884204D1FFE74FF0A040039043
:100EC00003E00D9800680390FFE7039806900698EA
:100ED000C0680790FFE7079800F40050B0F5005F86
:100EE00032D0FFE70D9800680068000700282AD577
:100EF000FFE70D98006803F05FFCC0B9FFE70D98AD
:100F00000168486820F00C0048600D99C86D20F415
:100F10008070C8650D98C06DC004002806D4FFE736
:100F20000D99C86D40F00100C865FFE70AE00D9912
:100F3000C86D40F01000C8650D99086E40F00100C2
:100F40000866FFE7FFE7FFE7FFE70D98FFF71CFFE5
:100F50000D9801680C200860FFE79DF82C008006C2
:100F6000002806D5FFE70A9800F0200020280ED0C0
:100F7000FFE79DF82C004006002840F1B280FFE713
:100F80009DF828004006002840F1AB80FFE70D984F
:100F9000C06DC006002806D4FFE70D99C86D40F467
:100FA0000050C865FFE70D98006803F0E1FB099069
:100FB0000D98006803F008FC08900D98006840F256
:100FC0000011C5F20001884204D1FFE74FF0A040B4
:100FD000029003E00D9800680290FFE702980D99D7
:100FE000096888420BD0FFE7059840B1FFE70598F4
:100FF000062804D0FFE70598072805D1FFE70D98DC
:101000000068C068079016E00D98006840F2001173
:10101000C5F20001884204D1FFE74FF0A0400190E3
:1010200003E00D9800680190FFE70198069006988C
:10103000C0680790FFE7099800284AD0FFE79DF8AD
:101040001F00800700280AD5FFE7089800283FD036
:10105000FFE79DF81D008006002839D4FFE70D98B2
:10106000006800684006002831D5FFE79DF81E00A3
:10107000800600282AD4FFE70D98006803F070FB73
:10108000C0B9FFE70D980168486820F0600048602B
:101090000D99C86D20F48050C8650D98C06DC005CD
:1010A000002806D4FFE70D99C86D40F00100C8651F
:1010B000FFE70AE00D99C86D40F01000C8650D9972
:1010C000086E40F001000866FFE7FFE7FFE7FFE773
:1010D000FFE70D98FFF754FA0D980168602008604B
:1010E000FFE79DF82C000006002813D5FFE79DF8C8
:1010F0002800000600280DD5FFE70D99C86D40F4C3
:101100008030C8650D9800F029FA0D98016880209C
:101110000860FFE79DF82D00C00798B1FFE79DF834
:101120002900C00770B1FFE70D99C86D40F4003089
:10113000C8650D98FFF72CFA0D9801684FF4807080
:101140000860FFE79DF82D008007002814D5FFE711
:101150009DF82900800700280ED5FFE70D99C86D7E
:1011600040F48020C8650D98FFF716FA0D980168C5
:101170004FF400700860FFE79DF82C00C0060028BF
:101180003ED5FFE79DF82800C006002838D5FFE7C8
:101190000D98C06B18B9FFE701200C9019E0059875
:1011A00060B1FFE740F20030C5F2000003F0B8FA8A
:1011B00018B1FFE701200C90FFE709E00D980068E7
:1011C000C068C00718B1FFE701200C90FFE7FFE7F8
:1011D000FFE70C9801280ED1FFE70D99C86D40F488
:1011E0008060C8650D99086E40F0020008660D9891
:1011F000FFF7CEFDFFE70D98016810200860FFE7BC
:101200009DF82D004007002819D5FFE79DF829001B
:101210004007002813D5FFE70D99C86D40F48040C2
:10122000C8650D99086E40F0080008660D980168C1
:101230004FF4806008600D98FFF7A6F9FFE70EB045
:1012400080BD000080B588B0069000208DF81700A2
:101250000190069820B9FFE701208DF81F0079E181
:101260000698406940B1FFE7069890F824000128ED
:1012700001D1FFE7FFE7FFE70698C06D50B9FFE730
:10128000069800F06FF9069900200866069981F823
:101290005800FFE70698006803F076FA28B1FFE7E8
:1012A0000698006803F018FAFFE70698006803F054
:1012B0007BFAF0B9FFE70698006803F019FA40F2EC
:1012C0000000C2F200000068800942F66351C0F2DB
:1012D0003E51A0FB01108109022000EB410001906A
:1012E000FFE7019820B1FFE7019801380190F8E786
:1012F000FFE70698006803F057FA70B9FFE7069910
:10130000C86D40F01000C8650699086E40F00100F5
:10131000086601208DF81700FFE70698006803F0C3
:101320004BFA03900698C06DC006002800F10481B6
:10133000FFE70398002840F0FF80FFE70698C06DA4
:1013400040F0020020F480700699C8650698006895
:1013500003F022FAD0B9FFE74FF0A04003F01CFAE7
:10136000009040F20010C5F2000003F015FA0146AB
:101370000098084348B9FFE70698416840F20030FA
:10138000C5F2000003F080FAFFE7FFE706994A7F05
:10139000C86B40EA42308A68CB681843104391F822
:1013A000241040EA01400490069890F82400012897
:1013B0000BD1FFE70698816A0020CFF6FE7000EBA4
:1013C0004141049808430490FFE70698C06A50B171
:1013D000FFE70699C86A096B00F478700143049826
:1013E00008430490FFE706980068C06844F20701CC
:1013F000CFF6F07108400499084306990968C8605F
:1014000006980068006920F04060069A1168526BE7
:10141000104308610698006803F0A2F9029003984F
:10142000002868D1FFE70298002864D1FFE70699F9
:10143000087F91F83810800340EA41000490069834
:101440000068C06844F20201884304990843069981
:101450000968C86006980069A0B1FFE706980168AE
:10146000086940F48030086106980068D0F8C00030
:1014700043F6FF718843069A116812691043C1F858
:10148000C00011E006980168086920F48030086106
:1014900006980068D0F8C00043F6FF7188430699AB
:1014A0000968C1F8C000FFE7069890F840000128DD
:1014B00019D1FFE706980068006940F2FD7120EA43
:1014C0000102069B1968586CD3F848E0D3F84CC069
:1014D00040EA0E0040EA0C001B6D1843104340F038
:1014E0000100086106E006980168086920F0010023
:1014F0000861FFE7FFE70698406901280CD1FFE784
:1015000006980068006B20F00F00069A1168126AB6
:10151000013A1043086306E006980168086B20F062
:101520000F000863FFE70698C06D40F0010020F04F
:1015300002000699C86508E00699C86D40F01000E1
:10154000C86501208DF81700FFE79DF817008DF89A
:101550001F00FFE79DF81F0008B080BD81B000901C
:1015600001B0704780B5A2B02190002020901F905C
:101570001E901D901C900BA84421FEF715FF21988A
:10158000006840F20011C5F20001884240F0A980D5
:10159000FFE74FF400400B904FF000501A900BA85B
:1015A00000F030FE18B1FFE7FEF7DEFFFFE7FFE7D0
:1015B00041F24C00C4F20200016841F400510160A4
:1015C000006800F400500A900A98FFE7FFE741F234
:1015D0004C00C4F20200016841F0010101600068A2
:1015E00000F0010009900998FFE7FFE741F24C0085
:1015F000C4F20200016841F004010160006800F0DB
:10160000040008900898FFE7FFE741F24C00C4F29D
:101610000200016841F002010160006800F0020070
:1016200007900798FFE750201C90032002901D9020
:10163000002005901E904FF090401CA9039100F0EF
:1016400069FA029A03990598202304931C931D922A
:101650001E9040F60000C4F6000000F05BFA029A0B
:101660000399059848F204031C931D921E9040F2C2
:101670000040C4F6000000F04DFA049A059940F2CB
:10168000DC00C2F2000006900823C4F202030360EB
:10169000242343608160C160802303614FF4807321
:1016A00043614FF480638361C261016200F084F999
:1016B00018B1FFE7FEF758FFFFE7FFE7219840F278
:1016C000DC01C2F20001416521988862FFE7122027
:1016D00001900022114600F091FC019800F084FC7A
:1016E000FFE722B080BD000083B0019000208DF89C
:1016F0000300019820B9FFE701208DF80B0049E0B5
:10170000019890F82500022807D0FFE701990420EE
:10171000C86301208DF803002DE001980168086876
:1017200020F00100086001980168086820F00E00B0
:1017300008600198816C086820F480700860019846
:10174000016C406C00F01F0201209040486001983D
:10175000C16C006D48600198406D58B1FFE7019879
:10176000416D086820F4807008600198816DC06D3B
:101770004860FFE7FFE70199012081F82500FFE7B6
:101780000199002081F82400FFE79DF803008DF8FF
:101790000B00FFE79DF80B0003B0704780B582B0E7
:1017A000019000208DF80300019890F82500022890
:1017B00011D0FFE701990420C8630199012081F845
:1017C0002500FFE70199002081F82400FFE70120B0
:1017D0008DF803003FE001980168086820F00100DF
:1017E000086001980168086820F00E000860019800
:1017F000816C086820F4807008600198016C406C6E
:1018000000F01F020120904048600198C16C006DFB
:1018100048600198406D58B1FFE70198416D086834
:1018200020F4807008600198816DC06D4860FFE70A
:101830000199012081F82500FFE70199002081F836
:101840002400FFE70198806B20B1FFE70198816BCE
:101850008847FFE7FFE79DF8030002B080BD000066
:1018600080B584B003900398006C006802900398E0
:1018700000680068019002980399496C01F01F010B
:10188000C8404007002825D5FFE79DF80400400721
:1018900000281FD5FFE7039800680068800600282D
:1018A00007D4FFE703980168086820F00400086087
:1018B000FFE70398016C406C00F01F020420904089
:1018C00048600398006B20B1FFE70398016B8847DD
:1018D000FFE76EE002980399496C01F01F01C840D0
:1018E000800700282FD5FFE79DF804008007002817
:1018F00029D5FFE7039800680068800600280BD40C
:10190000FFE703980168086820F00A00086003995F
:10191000012081F82500FFE70398016C406C00F07E
:101920001F02022090404860FFE70399002081F8E1
:101930002400FFE70398C06A20B1FFE70398C16A5B
:101940008847FFE734E002980399496C01F01F01D2
:10195000C8400007002829D5FFE79DF804000007CC
:10196000002823D5FFE703980168086820F00E00DF
:1019700008600398026C406C00F01F01012000FA1F
:1019800001F151600399C863039981F82500FFE7CD
:101990000399002081F82400FFE70398406B20B1F1
:1019A000FFE70398416B8847FFE700E0FFE7FFE7A9
:1019B000FFE704B080BD000080B584B002900298BB
:1019C00020B9FFE701208DF80F009EE00298006823
:1019D00040F20741C4F20201884218D8FFE7029999
:1019E00008684FF6F872CBF6FD7210444CF6CD4203
:1019F000CCF6CC42A0FB02026FF0030000EA92009A
:101A0000486402990020C4F20200086418E00299B8
:101A100008684FF6F832CBF6FD7210444CF6CD4212
:101A2000CCF6CC42A0FB02026FF0030000EA920069
:101A30004864029940F20040C4F202000864FFE7E3
:101A40000299022081F82500029800680068019040
:101A5000019847F6F0718843019002998868D1F89F
:101A60000CC00B694A6940EA0C00184310438A69AC
:101A70001043CA691043096A014301980843019061
:101A800001980299096808600298FEF703FD029820
:101A90008068B0F5804F04D1FFE7029900204860CC
:101AA000FFE702994868896C00F07F00086002989F
:101AB000C16C006D48600298406888B1FFE70298E9
:101AC000406804280CD8FFE70298FEF72BFD029827
:101AD000416D002008600298816DC06D486007E08C
:101AE000029900204865029988650299C865FFE758
:101AF00002990020C863029A012182F825100299F8
:101B000081F824008DF80F00FFE79DF80F0004B066
:101B100080BD00008BB00A90099100200890FFE77B
:101B2000099800680899C840002800F0B181FFE7D3
:101B300009980068089A0121914008400790079889
:101B4000002800F0A181FFE70998406800F0030039
:101B5000012807D0FFE70998406800F00300022839
:101B60002FD1FFE70A98806806900898410003206B
:101B700000FA01F10698884306900998C068089910
:101B8000490000FA01F106980843069006980A9960
:101B900088600A98406806900899012000FA01F1CF
:101BA00006988843069009984068C0F30010089989
:101BB00000FA01F106980843069006980A994860D1
:101BC000FFE70998406800F0030003280CD1FFE705
:101BD0000998406800F0030003281DD1FFE7099829
:101BE0008068012818D0FFE70A98C0680690089816
:101BF0004100032000FA01F10698884306900998F5
:101C000080680899490000FA01F106980843069097
:101C100006980A99C860FFE70998406800F0030039
:101C2000022826D1FFE70A9808996FF0030202EA1A
:101C300051010844006A0690089800F007008100EE
:101C40000F2000FA01F10698884306900998006970
:101C5000089901F00701890000FA01F1069808438C
:101C6000069006980A99089B02EA530211440862FA
:101C7000FFE70A980068069008984100032000FAE0
:101C800001F10698884306900998406800F0030027
:101C90000899490000FA01F1069808430690069851
:101CA0000A990860099880798007002800F0EB8085
:101CB000FFE7FFE741F26000C4F20200016841F073
:101CC00001010160006800F0010005900598FFE740
:101CD000089820F003000821C4F201014058069042
:101CE000089800F0030081000F2000FA01F1069827
:101CF000884306900A98B0F1904F03D1FFE7002087
:101D0000049042E00A9840F20041C4F60001884283
:101D100003D1FFE70120039034E00A9840F6000168
:101D2000C4F60001884203D1FFE70220029026E0BA
:101D30000A9840F60041C4F60001884203D1FFE74B
:101D40000320019018E00A9841F20001C4F6000156
:101D5000884203D1FFE7042000900AE00A9941F28B
:101D60000042C4F600020620914208BF0520009000
:101D7000FFE700980190FFE701980290FFE70298C3
:101D80000390FFE703980490FFE70498089901F097
:101D90000301890000FA01F10698084306900698AD
:101DA000089921F003010822C4F20102885040F290
:101DB0000840C4F20100006806900799069888431D
:101DC000069009988079C006002805D5FFE7079995
:101DD000069808430690FFE7069840F20841C4F2CF
:101DE0000101086040F20C40C4F201000068069056
:101DF00007990698884306900998807980060028FC
:101E000005D5FFE70799069808430690FFE706986F
:101E100040F20C41C4F20101086040F20440C4F2F7
:101E20000100006806900799069888430690099873
:101E300080798007002805D5FFE7079906980843B1
:101E40000690FFE7069840F20441C4F201010860E1
:101E500040F20040C4F2010000680690079906981D
:101E60008843069009988079C00728B1FFE7079951
:101E7000069808430690FFE7069840F20041C4F236
:101E800001010860FFE7FFE708980130089047E686
:101E90000BB0704782B00190ADF802108DF80120B0
:101EA0009DF8010028B1FFE7BDF8020001998861A3
:101EB00004E0BDF8020001998862FFE702B07047B4
:101EC00040F21C20C2F200000068704740F204009B
:101ED000C2F20000026840F21C21C2F20001086850
:101EE000104408607047000080B582B000208DF873
:101EF0000700032000F09AF80F2000F00DF820B141
:101F0000FFE701208DF8070002E000F049F8FFE745
:101F10009DF8070002B080BD80B582B0019000201E
:101F20008DF8030040F20400C2F20000006878B3AC
:101F3000FFE740F20000C2F20000006840F2040136
:101F4000C2F200010A684FF47A71B1FBF2F1B0FB02
:101F5000F1F001F0A1F9B0B9FFE701980F280DD811
:101F6000FFE701994FF0FF30002200F047F8019899
:101F700040F20801C2F20001086003E001208DF880
:101F80000300FFE703E001208DF80300FFE703E013
:101F900001208DF80300FFE79DF8030002B080BD2B
:101FA00080B582B0FFE741F26000C4F20200016830
:101FB00041F001010160006800F00100019001980A
:101FC000FFE7FFE741F25800C4F20200016841F068
:101FD00080510160006800F0805000900098FFE799
:101FE00000F006F902B080BD80B582B08DF8070020
:101FF0009DF9070004F088FA02B080BD80B586B074
:102000008DF817000491039204F096FA02909DF95E
:102010001700019002980499039A02F0C7FE014646
:10202000019804F091FA06B080BD000080B582B03E
:102030000190019804F0AAFA02B080BD85B0039027
:10204000039800285ED1FFE747F20000C4F20000C9
:10205000006800F4C060B0F5806F49D1FFE747F237
:102060008001C4F20001086820F48070086047F223
:102070000002C4F200021168012060F34A211160DD
:1020800040F20001C2F200010968322251434DF6CC
:102090008362C4F21B32A1FB022100EB914002904B
:1020A000FFE747F21400C4F2000001680020490570
:1020B0000029019006D5FFE70298002818BF0120EB
:1020C0000190FFE70198C00720B1FFE702980138AF
:1020D0000290E6E747F21400C4F2000000684005F1
:1020E000002804D5FFE703208DF813007CE008E00A
:1020F00047F28001C4F20001086820F48070086093
:10210000FFE76DE00398B0F5007F5ED1FFE747F28F
:102110000000C4F20000006800F4C060B0F5806FF9
:1021200049D1FFE747F28001C4F20001086840F49A
:102130008070086047F20002C4F2000211680120BA
:1021400060F34A21116040F20001C2F20001096807
:10215000322251434DF68362C4F21B32A1FB0221AD
:1021600000EB91400290FFE747F21400C4F2000038
:102170000168002049050029009006D5FFE7029874
:10218000002818BF01200090FFE70098C00720B189
:10219000FFE7029801380290E6E747F21400C4F224
:1021A000000000684005002804D5FFE703208DF8F3
:1021B000130019E008E047F28001C4F2000108684A
:1021C00040F480700860FFE709E047F20001C4F2C4
:1021D00000010868022262F34A200860FFE7FFE777
:1021E00000208DF81300FFE79DF8130005B070473D
:1021F00047F20801C4F20001086840F4804008601A
:102200007047000080B586B0059000208DF80B0067
:102210008DF80A00059880780007002840F1B58005
:10222000FFE700208DF8090041F25800C4F20200D7
:102230000068C000002813D4FFE7FFE741F2580010
:10224000C4F20200016841F080510160006800F0B2
:10225000805001900198FFE701208DF80900FFE709
:1022600047F20001C4F20001086840F48070086081
:10227000FFF726FE0390FFE747F20000C4F20000DC
:102280000068C00500280CD4FFE7FFF719FE03998A
:10229000401A032804D3FFE703208DF80B0000E069
:1022A000EAE79DF80B0000285BD1FFE741F29000C0
:1022B000C4F20200006800F4407004900498C8B1B1
:1022C000FFE704980599096C884213D0FFE741F2B3
:1022D0009001C4F20201086820F44070049008687C
:1022E00040F480300860086820F48030086004986A
:1022F0000860FFE79DF81000C007E0B1FFE7FFF7B7
:10230000DFFD0390FFE741F29000C4F20200006895
:10231000800700280ED4FFE7FFF7D2FD0399401A8B
:1023200041F28931884204D3FFE703208DF80B0086
:1023300000E0E8E7FFE79DF80B0060B9FFE741F236
:102340009001C4F20201086820F44070059A126CF2
:102350001043086004E09DF80B008DF80A00FFE7C9
:1023600004E09DF80B008DF80A00FFE79DF80900D6
:10237000012809D1FFE741F25801C4F202010868BF
:1023800020F080500860FFE7FFE705980078C0075D
:1023900060B1FFE741F28801C4F20201086820F051
:1023A0000300059A526810430860FFE7059800781B
:1023B000800700280CD5FFE741F28801C4F2020132
:1023C000086820F00C00059A926810430860FFE747
:1023D00005980078400700280CD5FFE741F28801F6
:1023E000C4F20201086820F03000059AD268104358
:1023F0000860FFE705980078000700280CD5FFE784
:1024000041F28801C4F20201086820F0C000059A78
:10241000126910430860FFE70598007880060028DD
:102420000CD5FFE741F28801C4F20201086820F4EC
:102430004060059A526910430860FFE705980078EC
:10244000400600280CD5FFE741F28801C4F20201E2
:10245000086820F44050059A926910430860FFE72D
:1024600005980078000600280CD5FFE741F28801A6
:10247000C4F20201086820F44040059AD269104372
:102480000860FFE705984078C00760B1FFE741F2B8
:102490008801C4F20201086820F44030059A126AEB
:1024A00010430860FFE705984078800700280CD5A6
:1024B000FFE741F28801C4F20201086820F44020DD
:1024C000059A526A10430860FFE705984078400774
:1024D00000281BD5FFE741F28801C4F20201086819
:1024E00020F44010059A926A104308600598806AAB
:1024F000B0F5801F09D1FFE741F20C01C4F20201DF
:10250000086840F480100860FFE7FFE7059840780E
:10251000000700281BD5FFE741F28801C4F2020141
:10252000086820F44000059AD26A104308600598B4
:10253000C06AB0F5800F09D1FFE741F20C01C4F287
:102540000201086840F480100860FFE7FFE7059883
:102550004078C00600281BD5FFE741F28801C4F28D
:102560000201086820F04070059A126B1043086061
:102570000598006BB0F1807F09D1FFE741F20C01B3
:10258000C4F20201086840F480100860FFE7FFE72A
:1025900005984078800600281BD5FFE741F28801A6
:1025A000C4F20201086820F04060059A526B1043A3
:1025B00008600598406BB0F1006F09D1FFE741F268
:1025C0000C01C4F20201086840F480100860FFE7C3
:1025D000FFE705984078400600281BD5FFE741F249
:1025E0008801C4F20201086820F04060059A926BED
:1025F000104308600598806BB0F1006F09D1FFE7C8
:1026000041F20C01C4F20201086840F48010086035
:10261000FFE7FFE705984078000600281BD5FFE795
:1026200041F28801C4F20201086820F04050059A86
:10263000D26B104308600598C06BB0F1805F09D180
:10264000FFE741F20C01C4F20201086840F4803057
:102650000860FFE7FFE79DF80A0006B080BD0000B4
:1026600080B586B00490039100200090049820B9B2
:10267000FFE701208DF8170081E1039842F2000185
:10268000C4F20201096801F00F01884216D9FFE780
:1026900042F20000C4F20200016821F00F01039A27
:1026A00011430160006800F00F000399884204D0D4
:1026B000FFE701208DF8170061E1FFE7049800783B
:1026C000C007002800F0A380FFE7049840680328B3
:1026D00039D1FFE741F20000C4F202000068800136
:1026E000002804D4FFE701208DF8170047E102F02D
:1026F00095FB019001984BF20141C0F2C441884220
:1027000020D3FFE741F20800C4F20200006810F095
:10271000F00F0AD0FFE7049800788007002810D552
:10272000FFE70498806860B9FFE741F20801C4F24E
:1027300002010868082262F30710086080200090F8
:10274000FFE7FFE738E00498406802280ED1FFE772
:1027500041F20000C4F2020000688003002804D4A3
:10276000FFE701208DF8170009E10DE041F20000BC
:10277000C4F2020000684005002804D4FFE70120ED
:102780008DF81700FBE0FFE700F02CF901900198AD
:102790004BF20141C0F2C44188420CD3FFE741F241
:1027A0000801C4F202010868082262F307100860F9
:1027B00080200090FFE7FFE741F20801C4F2020128
:1027C000086820F00300049A526810430860FFF77D
:1027D00077FB0290FFE741F20800C4F202000068B4
:1027E00000F00C0004994968B0EB810F0ED0FFE7B0
:1027F000FFF766FB0299401A41F28931884204D3FF
:10280000FFE703208DF81700B9E0E4E7FFE704983D
:102810000078800700282CD5FFE70498007840074F
:10282000002809D5FFE741F20801C4F20201086857
:1028300040F4E0600860FFE7049800780007002893
:102840000BD5FFE741F20801C4F20201086840F429
:10285000E06020F460500860FFE741F20801C4F234
:102860000201086820F0F000049A926810430860A2
:102870000DE00098802809D1FFE741F20801C4F279
:102880000201086820F0F0000860FFE7FFE7039806
:1028900042F20001C4F20201096801F00F0188420E
:1028A00028D2FFE742F20001C4F20201086820F0DA
:1028B0000F00039A10430860FFF702FB0290FFE746
:1028C00042F20000C4F20200006800F00F00039919
:1028D00088420ED0FFE7FFF7F3FA0299401A41F25F
:1028E0008931884204D3FFE703208DF8170046E0C2
:1028F000E6E7FFE704980078400700280CD5FFE7DB
:1029000041F20801C4F20201086820F4E060049A70
:10291000D26810430860FFE7049800780007002899
:102920000DD5FFE741F20801C4F20201086820F466
:102930006050049A126940EAC2000860FFE700F0A4
:1029400051F841F20801C4F202010968C9B20A094A
:1029500046F20A61C0F60001895C01F01F01C8401F
:1029600040F20001C2F20001086040F20800C2F229
:1029700000000068FFF7D0FA8DF81700FFE79DF818
:10298000170006B080BD000040F20000C2F2000057
:102990000068704780B5FFF7F7FF41F20801C4F205
:1029A00002010968C1F3022246F21A61C0F6000171
:1029B000895C01F01F01C84080BD000080B5FFF7B1
:1029C000E3FF41F20801C4F202010968C1F3C22227
:1029D00046F21A61C0F60001895C01F01F01C8408F
:1029E00080BD000086B041F20800C4F20200006819
:1029F00000F00C00042806D1FFE742F20040C0F2CC
:102A0000F400019069E041F20800C4F2020000689D
:102A100000F00C00082806D1FFE742F20040C0F2A7
:102A2000F400019058E041F20800C4F2020000688E
:102A300000F00C000C284BD1FFE741F20C00C4F26F
:102A40000200016801F0030104910068C1B2012095
:102A500000EB1110029004980090022815D0FFE7B7
:102A60000098032812D1FFE7029942F20040C0F219
:102A7000F400B0FBF1F041F20C01C4F2020109686C
:102A8000C1F306214843059011E0FFE7029942F2A5
:102A90000040C0F2F400B0FBF1F041F20C01C4F2CE
:102AA00002010968C1F3062148430590FFE741F29E
:102AB0000C00C4F20200006800F0C061022000EBCC
:102AC0001160039005980399B0FBF1F0019002E0CA
:102AD00000200190FFE7FFE7FFE7019806B070478D
:102AE000B0B588B00690069820B9FFE701208DF8B0
:102AF0001F00CCE306980078C007002800F09B80F8
:102B0000FFE741F20800C4F20200006800F00C0088
:102B1000049041F20C00C4F20200006800F00300CF
:102B2000039004980C2804D1FFE70398032804D0ED
:102B3000FFE70498082812D1FFE741F20000C4F231
:102B4000020000688003002808D5FFE70698406867
:102B500020B9FFE701208DF81F0098E36AE0FFE746
:102B600006984068B0F5803F09D1FFE741F20001C7
:102B7000C4F20201086840F48030086020E0069842
:102B80004068B0F5A02F0DD1FFE741F20001C4F27B
:102B90000201086840F480200860086840F4803032
:102BA00008600CE041F20001C4F20201086820F460
:102BB00080300860086820F480200860FFE7FFE7A5
:102BC000FFE706984068D0B1FFE7FFF779F9059075
:102BD000FFE741F20000C4F2020000688003002811
:102BE0000CD4FFE7FFF76CF90599401A652804D368
:102BF000FFE703208DF81F0049E3EAE719E0FFF73C
:102C00005FF90590FFE741F20000C4F2020000689E
:102C1000800300280CD5FFE7FFF752F90599401A09
:102C2000652804D3FFE703208DF81F002FE3EAE7B0
:102C3000FFE7FFE7FFE7069800788007002840F1EC
:102C40009F80FFE741F20800C4F20200006800F034
:102C50000C00049041F20C00C4F20200006800F085
:102C60000300039004980C2804D1FFE7039802287E
:102C700004D0FFE7049804282CD1FFE741F20000BC
:102C8000C4F2020000684005002808D5FFE7069856
:102C9000C06820B9FFE701208DF81F00F7E241F27C
:102CA0000401C4F20201086820F0FE40069A12698D
:102CB00040EA0260086040F20800C2F200000068CA
:102CC000FFF72AF920B1FFE701208DF81F00DEE2AF
:102CD000FFE754E00698C06870B3FFE741F20001D7
:102CE000C4F20201086840F480700860FFF7E8F859
:102CF0000590FFE741F20000C4F2020000684005C1
:102D000000280CD4FFE7FFF7DBF80599401A0328E9
:102D100004D3FFE703208DF81F00B8E2EAE741F291
:102D20000401C4F20201086820F0FE40069A12690C
:102D300040EA0260086021E041F20001C4F20201B1
:102D4000086820F480700860FFF7BAF80590FFE784
:102D500041F20000C4F202000068400500280CD5D2
:102D6000FFE7FFF7ADF80599401A032804D3FFE702
:102D700003208DF81F008AE2EAE7FFE7FFE7FFE79D
:102D8000069800780007002849D5FFE706984069B3
:102D900010B3FFE741F29401C4F20201086840F069
:102DA00001000860FFF78CF80590FFE741F29400FE
:102DB000C4F202000068800700280CD4FFE7FFF788
:102DC0007FF80599401A032804D3FFE703208DF804
:102DD0001F005CE2EAE721E041F29401C4F2020143
:102DE000086820F001000860FFF76AF80590FFE727
:102DF00041F29400C4F202000068800700280CD55C
:102E0000FFE7FFF75DF80599401A032804D3FFE7B1
:102E100003208DF81F003AE2EAE7FFE7FFE7069894
:102E200000784007002840F1C680FFE700208DF8B9
:102E30000B0041F25800C4F202000068C0000028F4
:102E400013D4FFE7FFE741F25800C4F20200016823
:102E500041F080510160006800F0805001900198BD
:102E6000FFE701208DF80B00FFE747F20000C4F2F6
:102E700000000068C005002822D4FFE747F20001E7
:102E8000C4F20001086840F480700860FFF718F889
:102E90000590FFE747F20000C4F200000068C0059B
:102EA00000280CD4FFE7FFF70BF80599401A032818
:102EB00004D3FFE703208DF81F00E8E1EAE7FFE70E
:102EC000FFE706988068012809D1FFE741F29001E9
:102ED000C4F20201086840F0010008601FE0069893
:102EE000806805280DD1FFE741F29001C4F202018C
:102EF000086840F004000860086840F001000860BD
:102F00000CE041F29001C4F20201086820F00100D7
:102F10000860086820F004000860FFE7FFE7FFE7AB
:102F200006988068E0B1FFE7FEF7CAFF0590FFE76B
:102F300041F29000C4F202000068800700280ED41D
:102F4000FFE7FEF7BDFF0599401A41F2893188423B
:102F500004D3FFE703208DF81F0098E1E8E71BE0AA
:102F6000FEF7AEFF0590FFE741F29000C4F20200C9
:102F70000068800700280ED5FFE7FEF7A1FF05993E
:102F8000401A41F28931884204D3FFE703208DF8CB
:102F90001F007CE1E8E7FFE79DF80B00012809D15D
:102FA000FFE741F25801C4F20201086820F08050A6
:102FB0000860FFE7FFE7069800788006002849D5FB
:102FC000FFE70698806910B3FFE741F29801C4F269
:102FD0000201086840F001000860FEF771FF0590EB
:102FE000FFE741F29800C4F2020000688007002861
:102FF0000CD4FFE7FEF764FF0599401A032804D3B9
:10300000FFE703208DF81F0041E1EAE721E041F2EC
:103010009801C4F20201086820F001000860FEF780
:103020004FFF0590FFE741F29800C4F202000068EC
:10303000800700280CD5FFE7FEF742FF0599401AEC
:10304000032804D3FFE703208DF81F001FE1EAE700
:10305000FFE7FFE70698C069002800F01481FFE74A
:1030600041F20800C4F20200006800F00C000C28D5
:1030700000F0B080FFE70698C06902287CD1FFE726
:1030800041F20001C4F20201086820F0807008607B
:10309000FEF716FF0590FFE741F20000C4F20200C0
:1030A0000068800100280CD5FFE7FEF709FF0599AD
:1030B000401A032804D3FFE703208DF81F00E6E041
:1030C000EAE741F20C01C4F20201086848F20C027E
:1030D000C0F29F121040DDF818C0DCF82020DCF8A8
:1030E0002450DCF828E0DCF82C306FF00F0404EBFF
:1030F0000514224342EA0E22DCF8304040F2000E72
:10310000CFF6E07E0EEA045EAEF5001E42EA0E0245
:10311000DCF834E04FF07E4C0CEA0E6C0CF17E4C87
:1031200042EA0C0242EAC3621043086041F2000224
:10313000C4F20202106840F080701060086840F02D
:1031400080700860FEF7BCFE0590FFE741F20000CA
:10315000C4F202000068800100280CD4FFE7FEF7EB
:10316000AFFE0599401A032804D3FFE703208DF82A
:103170001F008CE0EAE72CE041F20001C4F20201FA
:10318000086820F080700860FEF79AFE0590FFE75F
:1031900041F20000C4F202000068800100280CD552
:1031A000FFE7FEF78DFE0599401A032804D3FFE7D9
:1031B00003208DF81F006AE0EAE741F20C01C4F237
:1031C000020108684FF6FC72CFF6EE62104008600C
:1031D000FFE757E00698C069012804D1FFE7012006
:1031E0008DF81F0053E041F20C00C4F202000068A9
:1031F0000390039800F003000699096A88423BD1C6
:10320000FFE7039800F0F00006994A6A6FF00F019B
:1032100001EB021188422FD1FFE7039800F4FE4032
:103220000699896AB0EB012F26D1FFE7039800F0D9
:1032300078400699C96AB0EBC16F1DD1FFE70398CA
:1032400000F4C00006990A6B0021CFF6E07101EA94
:103250000251A1F5001188420ED1FFE7039800F05A
:10326000C06006994A6B4FF07E4101EA026101F1AC
:103270007E41884204D0FFE701208DF81F0006E060
:10328000FFE7FFE7FFE700208DF81F00FFE79DF84D
:103290001F0008B0B0BD000080B582B00190019859
:1032A00001F00CFE02B080BD81B0009001B070470B
:1032B00081B0009001B0704781B0009001B07047BC
:1032C00084B00290019100200090FFE7029890F8EE
:1032D0003C00012804D1FFE702208DF80F0083E0B5
:1032E0000299012081F83C00FFE7FFE7009820F0F9
:1032F000FF000199C96808430090009820F44070CD
:103300000199896808430090009820F48060019931
:10331000496808430090009820F40060019909680A
:1033200008430090009820F48050019909690843EF
:103330000090009820F400500199496908430090DA
:10334000009820F480400199096B08430090009890
:1033500020F470200199896940EA014000900098AA
:1033600020F080500199C9690843009002980068D4
:1033700042F60041C4F20101884209D0FFE70298F9
:10338000006843F20041C4F2010188421ED1FFE708
:10339000009820F470000199896A40EA0150009079
:1033A000009820F080700199096A08430090009805
:1033B00020F000700199496A08430090009820F0BD
:1033C00000500199C96A08430090FFE700980299EC
:1033D00009684864FFE70299002081F83C00FFE794
:1033E00000208DF80F00FFE79DF80F0004B0704734
:1033F00081B0009001B0704781B0009001B070477B
:1034000081B0009001B0704785B003900291FFE752
:10341000039890F83C00012804D1FFE702208DF8C2
:1034200013008CE00399012081F83C00FFE7FFE7DF
:103430000399022081F83D000398006840680190DC
:1034400003980068806800900398006842F6004185
:10345000C4F20101884209D0FFE70398006843F2F3
:103460000041C4F2010188420AD1FFE7019820F42B
:103470007000019002984168019808430190FFE7AD
:1034800001984FF68F71CFF6FF51084001900298D6
:103490000168019808430190019803990968486000
:1034A0000398006842F60041C4F2010188422AD024
:1034B000FFE703980068B0F1804F24D0FFE703983E
:1034C000006840F20041C4F2000188421BD0FFE7CF
:1034D0000398006840F60001C4F20001884212D04F
:1034E000FFE70398006843F20041C4F201018842FB
:1034F00009D0FFE70398006844F20001C4F201011B
:1035000088420ED1FFE7009820F0800000900298DA
:1035100081680098084300900098039909688860C2
:10352000FFE70399012081F83D00FFE703990020A0
:1035300081F83C00FFE700208DF81300FFE79DF8BD
:10354000130005B07047000081B0009001B07047D3
:1035500080B582B00090009820B9FFE701208DF877
:10356000070045E0009890F83D0040B9FFE700995A
:10357000002081F83C00009800F03EF8FFE7009939
:10358000022081F83D00009951F8040B01F010FD74
:103590000099012081F84800FFE70099012081F897
:1035A0003E00009981F83F00009981F840000099A1
:1035B00081F84100009981F84200009981F84300A8
:1035C000FFE7FFE70099012081F84400009981F8A6
:1035D0004500009981F84600009981F84700FFE70F
:1035E0000099012081F83D0000208DF80700FFE7D9
:1035F0009DF8070002B080BD80B584B003900398A9
:10360000006842F60041C4F20101884219D1FFE787
:10361000FFE741F26000C4F20200016841F400617A
:103620000160006800F4006002900298FFE7192032
:10363000019000221146FEF7E1FC0198FEF7D4FC50
:10364000FFE704B080BD000080B586B00490039110
:1036500000208DF80B00FFE7049890F83C0001284B
:1036600004D1FFE702208DF81700D3E00499012070
:1036700081F83C00FFE7FFE70499022081F83D0054
:10368000049800688068019001984FF68871CFF621
:10369000CE7108400190019820F47F40019001987C
:1036A000049909688860039800680090002800F079
:1036B0009780FFE70098102800F09280FFE70098BD
:1036C000202800F08D80FFE70098302800F08880E7
:1036D000FFE70098402876D0FFE70098502858D0A0
:1036E000FFE70098602861D0FFE7009870282CD091
:1036F000FFE70098B0F5805F26D0FFE70098B0F5AF
:10370000005F37D0FFE70098B0F1101F68D0FFE7E7
:1037100000982021C0F21001884261D0FFE7009894
:103720003021C0F2100188425AD0FFE700984021B2
:10373000C0F21001884253D0FFE700987021C0F218
:10374000100188424CD052E055E004980068039B79
:103750005A689968DB6801F0F1FC04980068806899
:103760000190019840F07700019001980499096850
:10377000886040E004980068039B5A689968DB6899
:1037800001F0DCFC04980168886840F4804088609F
:1037900031E004980068039A5168D26802F0ACF8EE
:1037A00004980068502101F0E3FC24E004980068CC
:1037B000039A5168D26802F0F5F804980068602115
:1037C00001F0D6FC17E004980068039A5168D268AB
:1037D00002F092F804980068402101F0C9FC0AE068
:1037E000049800680399096801F0C2FC03E0012015
:1037F0008DF80B00FFE70499012081F83D00FFE7F9
:103800000499002081F83C00FFE79DF80B008DF83B
:103810001700FFE79DF8170006B080BD81B000904B
:1038200001B0704780B584B0039003980068C06809
:10383000029003980068006901909DF804008007D9
:10384000002824D5FFE79DF80800800700281DD533
:10385000FFE7039801686FF00200086103990120F7
:103860000877039800688069800720B1FFE7039814
:10387000FFF7D4FF06E0039800F088F9039800F002
:10388000B9FAFFE7039900200877FFE7FFE79DF803
:1038900004004007002825D5FFE79DF808004007F1
:1038A00000281ED5FFE7039801686FF00400086147
:1038B00003990220087703980068806910F4407F1C
:1038C00004D0FFE70398FFF7A9FF06E0039800F094
:1038D0005DF9039800F08EFAFFE70399002008775E
:1038E000FFE7FFE79DF804000007002824D5FFE765
:1038F0009DF80800000700281DD5FFE70398016820
:103900006FF00800086103990420087703980068A5
:10391000C069800720B1FFE70398FFF77FFF06E04B
:10392000039800F033F9039800F064FAFFE7039975
:1039300000200877FFE7FFE79DF80400C006002895
:1039400025D5FFE79DF80800C00600281ED5FFE733
:10395000039801686FF01000086103990820087748
:1039600003980068C06910F4407F04D0FFE7039813
:10397000FFF754FF06E0039800F008F9039800F001
:1039800039FAFFE7039900200877FFE7FFE79DF882
:103990000400C00778B1FFE79DF80800C00748B1F0
:1039A000FFE7039801686FF001000861039800F0D9
:1039B00025FAFFE7FFE7019800F08000802806D095
:1039C000FFE79DF805008006002810D5FFE79DF869
:1039D00008000006002809D5FFE7039801686FF486
:1039E000025008610398FFF763FCFFE7FFE79DF8CB
:1039F0000500C00780B1FFE79DF808000006002819
:103A000009D5FFE7039801686FF480700861039897
:103A1000FFF74AFCFFE7FFE79DF804004006002897
:103A200010D5FFE79DF808004006002809D5FFE7FC
:103A3000039801686FF040000861039800F0E2F914
:103A4000FFE7FFE79DF804008006002810D5FFE798
:103A50009DF808008006002809D5FFE70398016853
:103A60006FF0200008610398FFF726FCFFE7FFE7EF
:103A70009DF80600C006002810D5FFE79DF80A0053
:103A8000C006002809D5FFE7039801686FF480108D
:103A900008610398FFF7B0FCFFE7FFE79DF8060019
:103AA0008006002810D5FFE79DF80A008006002850
:103AB00009D5FFE7039801686FF4001008610398C7
:103AC000FFF796FCFFE7FFE79DF806004006002899
:103AD00010D5FFE79DF80A004006002809D5FFE74A
:103AE000039801686FF4800008610398FFF788FC71
:103AF000FFE7FFE79DF806000006002810D5FFE766
:103B00009DF80A000006002809D5FFE70398016820
:103B10006FF4000008610398FFF716FDFFE7FFE769
:103B200004B080BD80B588B0079000200690059055
:103B30000490039002900798006842F60041C4F296
:103B4000010188421FD1FFE7FFE741F24C00C4F2B8
:103B50000200016841F004010160006800F0040007
:103B600001900198FFE70F200290022003900021AE
:103B700004910591069040F60000C4F6000002A9E9
:103B8000FDF7C8FFFFE708B080BD000081B00090DE
:103B900001B0704780B586B0049003910292002076
:103BA0008DF80700FFE7049890F83C00012804D145
:103BB000FFE702208DF81700C0E00499012081F88A
:103BC0003C00FFE7FFE702980090142800F2A7806E
:103BD0000099DFE801F00BA4A4A424A4A4A43EA4AB
:103BE000A4A457A4A4A471A4A4A48A00049800685F
:103BF000039901F0D5FA04980168886940F008003B
:103C0000886104980168886920F00400886103983D
:103C100002690498016888691043886183E0049808
:103C20000068039901F068FB04980168886940F412
:103C30000060886104980168886920F48060886168
:103C40000398026904980168886940EA0220886143
:103C500069E004980068039901F008FC0498016881
:103C6000C86940F00800C86104980168C86920F07C
:103C70000400C8610398026904980168C869104388
:103C8000C86150E004980068039901F0A7FC04980B
:103C90000168C86940F40060C86104980168C86997
:103CA00020F48060C8610398026904980168C869BB
:103CB00040EA0220C86136E004980068039901F0E8
:103CC00047FD04980168086D40F0080008650498F5
:103CD0000168086D20F004000865039802690498E3
:103CE0000168086D104308651DE004980068039999
:103CF00001F098FD04980168086D40F400600865C3
:103D000004980168086D20F48060086503980269D2
:103D100004980168086D40EA0220086503E001206C
:103D20008DF80700FFE7FFE70499002081F83C00C9
:103D3000FFE79DF807008DF81700FFE79DF81700D3
:103D400006B080BD80B582B00090009820B9FFE732
:103D500001208DF8070045E0009890F83D0040B93B
:103D6000FFE70099002081F83C00009800F03EF841
:103D7000FFE70099022081F83D00009951F8040BFB
:103D800001F016F90099012081F84800FFE7009939
:103D9000012081F83E00009981F83F00009981F8E8
:103DA0004000009981F84100009981F84200009993
:103DB00081F84300FFE7FFE70099012081F8440004
:103DC000009981F84500009981F84600009981F832
:103DD0004700FFE70099012081F83D0000208DF8A1
:103DE0000700FFE79DF8070002B080BD81B000909A
:103DF00001B0704781B0009001B0704781B0009071
:103E000001B0704781B0009001B0704783B001905D
:103E1000FFE7019890F88400012804D1FFE7022011
:103E20008DF80B002CE00199012081F88400FFE758
:103E3000FFE701992420C1F8880001980068006814
:103E4000009001980168086820F00100086000985F
:103E500020F00050009001990020486600980199D8
:103E60000968086001992020C1F88800FFE70199DE
:103E7000002081F88400FFE700208DF80B00FFE7A9
:103E80009DF80B0003B0704782B00190ADF80210AE
:103E900002B0704781B0009001B0704780B584B027
:103EA00002900191FFE7029890F88400012804D164
:103EB000FFE702208DF80F0032E00299012081F81F
:103EC0008400FFE7FFE702992420C1F888000298E8
:103ED00000680068009002980168086820F00100FE
:103EE000086002980068806820F0606001990843CB
:103EF000029909688860029801F0B4FD009802995F
:103F00000968086002992020C1F88800FFE702993B
:103F1000002081F88400FFE700208DF80F00FFE704
:103F20009DF80F0004B080BD80B584B0029001916F
:103F3000FFE7029890F88400012804D1FFE70220EF
:103F40008DF80F0032E00299012081F88400FFE72C
:103F5000FFE702992420C1F88800029800680068F1
:103F6000009002980168086820F00100086002983B
:103F70000068806820F06040019908430299096850
:103F80008860029801F06EFD009802990968086047
:103F900002992020C1F88800FFE70299002081F8EB
:103FA0008400FFE700208DF80F00FFE79DF80F0069
:103FB00004B080BD81B0009001B0704781B0009026
:103FC00001B0704781B0009001B0704780B590B0EB
:103FD0000F900F980068C0690E900F9800680068F5
:103FE0000D900F98006880680C900E9840F60F01B5
:103FF00008400B900B98E0B9FFE79DF83800800669
:10400000002815D5FFE79DF834008006002806D467
:10401000FFE79DF83300C006002809D5FFE70F9899
:10402000406F20B1FFE70F98416F8847FFE796E2A6
:10403000FFE70B98002800F00C81FFE70C980121A6
:10404000C1F20001084209D1FFE70D9840F22011AA
:10405000C0F20041084200F0FC80FFE79DF8380004
:10406000C00788B1FFE79DF83500C00760B1FFE7E2
:104070000F980168012008620F99D1F8900040F074
:104080000100C1F89000FFE79DF838008007002884
:1040900011D5FFE79DF83000C00760B1FFE70F982A
:1040A0000168022008620F99D1F8900040F00400E6
:1040B000C1F89000FFE79DF838004007002811D5AF
:1040C000FFE79DF83000C00760B1FFE70F98016877
:1040D000042008620F99D1F8900040F00200C1F866
:1040E0009000FFE79DF838000007002819D5FFE78A
:1040F0009DF834008006002807D4FFE70C980121C2
:10410000C1F2000108420CD0FFE70F9801680820B7
:1041100008620F99D1F8900040F00800C1F89000B3
:10412000FFE79DF839000007002813D5FFE79DF849
:104130003700400700280DD5FFE70F9801684FF4BE
:10414000006008620F99D1F8900040F02000C1F89B
:104150009000FFE70F98D0F89000002878D0FFE794
:104160009DF838008006002815D5FFE79DF834003B
:104170008006002806D4FFE79DF83300C00600281B
:1041800009D5FFE70F98406F20B1FFE70F98416F07
:104190008847FFE7FFE70F98D0F890000A900F9844
:1041A0000068806800F04000402806D0FFE79DF8D6
:1041B000280010F0280F42D0FFE70F9801F0EAFD29
:1041C0000F98006880684006002833D5FFE7FFE7B6
:1041D000FFE70F98006850E8020F20F040000990B8
:1041E000FFE709990F98026842E802100028F0D111
:1041F000FFE7FFE70F98D0F88000B0B1FFE70F9816
:10420000D0F8801045F67D50C0F6000088630F9806
:10421000D0F88000FDF7C2FA30B1FFE70F98D0F870
:104220008000816B8847FFE703E00F98FFF7CAFE25
:10423000FFE703E00F98FFF7C5FEFFE707E00F98E1
:10424000FFF7C0FE0F990020C1F89000FFE7FFE7DD
:1042500085E10F98C06E012840F02281FFE79DF8AC
:104260003800C006002840F11B81FFE79DF83400AC
:10427000C006002840F11481FFE70F980168102064
:1042800008620F98006880684006002840F1A68008
:10429000FFE70F98D0F8800000684068ADF8220072
:1042A000BDF8220000287CD0FFE7BDF822000F995E
:1042B000B1F85C10884274DAFFE7BDF822000F996C
:1042C000A1F85E000F98D0F88000006800688006B2
:1042D000002859D4FFE7FFE7FFE70F98006850E890
:1042E000000F20F480700790FFE707990F9802688D
:1042F00042E800100028F0D1FFE7FFE7FFE7FFE703
:104300000F98006850E8020F20F001000690FFE7C8
:1043100006990F98026842E802100028F0D1FFE7E2
:10432000FFE7FFE7FFE70F98006850E8020F20F073
:1043300040000590FFE705990F98026842E80210D7
:104340000028F0D1FFE7FFE70F992020C1F88C008B
:104350000F990020C866FFE7FFE70F98006850E854
:10436000000F20F010000490FFE704990F980268F6
:1043700042E800100028F0D1FFE7FFE70F98D0F8DF
:104380008000FDF7B1F9FFE70F99022008670F9849
:10439000B0F85C10B0F85E20891A89B2FFF774FD9E
:1043A0001BE0BDF822000F99B1F85C10884213D1D0
:1043B000FFE70F98D0F880000068006880060028AA
:1043C00009D5FFE70F99022008670F98B0F85C1035
:1043D000FFF75AFDFFE7FFE7FFE7C0E00F99B1F8ED
:1043E0005C00B1F85E10401AADF80E000F98B0F8FE
:1043F0005E00002853D0FFE7BDF80E0000284ED025
:10440000FFE7FFE7FFE70F98006850E8000F20F490
:1044100090700290FFE702990F98026842E800103E
:104420000028F0D1FFE7FFE7FFE7FFE70F980068FC
:1044300050E8020F4FF6FE71CEF6FF710840019072
:10444000FFE701990F98026842E802100028EDD1B9
:10445000FFE7FFE70F992020C1F88C000F9900209B
:10446000C8660F994867FFE7FFE70F98006850E8B4
:10447000000F20F010000090FFE700990F980268ED
:1044800042E800100028F0D1FFE7FFE70F99022073
:1044900008670F98BDF80E10FFF7F6FCFFE75EE027
:1044A0009DF83A00C00600280FD5FFE79DF83200BE
:1044B0004006002809D5FFE70F9801684FF48010E7
:1044C00008620F98FFF77AFD49E09DF83800000672
:1044D000002815D5FFE79DF834000006002806D413
:1044E000FFE79DF832000006002809D5FFE70F9886
:1044F000806F20B1FFE70F98816F8847FFE72EE0BC
:104500009DF83800400600280AD5FFE79DF83400E2
:104510004006002804D5FFE70F9801F08BFC1EE051
:104520009DF83A00000600280AD5FFE79DF83700FD
:104530004006002804D5FFE70F98FFF73BFD0EE08B
:104540009DF83B00C00750B1FFE79DF8370000061B
:10455000002804D5FFE70F98FFF79CFCFFE710B099
:1045600080BD000080B582B00090009820B9FFE7C0
:1045700001208DF8070046E00098806908B1FFE748
:1045800000E0FFE70098D0F8880040B9FFE7009905
:10459000002081F88400009800F03AF8FFE70099C5
:1045A0002420C1F8880000980168086820F0010004
:1045B00008600098806A20B1FFE7009801F096FA41
:1045C000FFE7009801F058FC012804D1FFE7012023
:1045D0008DF8070017E000980168486820F49040C3
:1045E000486000980168886820F02A008860009878
:1045F0000168086840F001000860009801F01AFBAB
:104600008DF80700FFE79DF8070002B080BD0000AD
:1046100080B59CB01B9000201A90199018901790AC
:10462000169005A84421FBF7BFFE1B98006843F6CF
:104630000001C4F20101884245D1FFE70120059045
:104640000020069005A8FDF7DDFD18B1FFE7FBF798
:104650008BFFFFE7FFE741F26000C4F20200016850
:1046600041F480410160006800F4804004900498A7
:10467000FFE7FFE741F24C00C4F20200016841F09D
:1046800002010160006800F0020003900398FFE758
:10469000C0201690022017900020019018901990C9
:1046A00007201A9040F20040C4F6000016A9FDF75A
:1046B00031FA019A252002901146FDF79FFC0298DD
:1046C000FDF792FCFFE71CB080BD000081B00090B8
:1046D00001B07047FFE7FEE781B00090009988685D
:1046E0004FF6C072C5F6FF721040886001B0704787
:1046F00081B000900098806840F080504FF6C07103
:10470000C7F6FF7108400099886001B0704700004B
:1047100081B000900098806800F0E07001B07047B0
:1047200081B000900098806800F4604001B070474C
:1047300081B000900098806800F01F0001B07047C1
:1047400083B0029001910298019900EB81006030E2
:1047500000900098006800F0F84003B07047000037
:1047600081B0009000988068C0F3C00001B070472D
:1047700081B000900098C06C00F4C070B0FA80F076
:10478000400901B07047000081B000900098806837
:10479000C0F3407001B0704781B00090009880680D
:1047A00000F0010001B0704781B00090009880686F
:1047B000C0F3007001B0704781B00090009880682D
:1047C000C0F3800001B0704781B000900098C068CD
:1047D00000F44060B0FA80F0400901B0704700007A
:1047E00084B00390029101920398029901F4407100
:1047F00000EB91103030009000980068029901F0B1
:104800001F021F21914088430199C1F384619140A7
:1048100008430099086004B07047000084B003901A
:10482000029101920398029901F0007100EBD150BE
:1048300014300090009800680299C1F304520721D7
:10484000914088430199914008430099086004B061
:104850007047000083B00290019100920298D0F856
:10486000B00001996FF3DF418843009A02F018030A
:104870004FF6FF72C0F20702DA4011400843029976
:10488000C1F8B00003B0704782B001900091019868
:10489000806820F47C10009908430199886002B078
:1048A0007047000082B0019000910198806820F06C
:1048B000E070009908430199886002B070470000D9
:1048C00085B004900391029201930498039900EB40
:1048D000810060300090009800684FF20001C0F243
:1048E000FF310140029800F0F840019A104308435C
:1048F00040F000400099086005B0704784B0039014
:10490000029101920398029900EB810060300090BF
:104910000098006820F00070019908430099086031
:1049200004B0704784B003900291019203980299F9
:1049300000EB8100603000900098006820F08070EB
:10494000019908430099086004B0704784B003904F
:10495000029101920398029900EB8100603000906F
:104960000098006820F00040019908430099086011
:1049700004B0704782B0019000910198406920F026
:104980000040009908430199486102B07047000057
:1049900080B58AB000210091099108910791069194
:1049A000059104910391029140F27000C2F200005F
:1049B000019040F20012C5F2000202604FF4403252
:1049C00042608160C16001614161042282610177BE
:1049D00041770122026280F82410C162016380F8ED
:1049E0003810C16380F84010FCF72CFC18B1FFE7C9
:1049F000FBF7BAFDFFE70020C4F2527002900620D8
:104A00000390002004907F210591042106910790D6
:104A100040F27000C2F2000002A9FBF7C1FD18B11C
:104A2000FFE7FBF7A1FDFFE70AB080BD80B584B0CA
:104A3000FFE741F24800C4F20200016841F00401BE
:104A40000160006800F0040003900398FFE7FFE7AF
:104A500041F24800C4F20200016841F00101016026
:104A6000006800F0010002900298FFE70B2001901F
:104A700000221146FDF7C2FA0198FDF7B5FA04B01D
:104A800080BD000080B592B00020119010900F9072
:104A90000E900D90FFE741F24C00C4F20200016855
:104AA00041F004010160006800F004000C900C98D3
:104AB000FFE7FFE741F24C00C4F20200016841F059
:104AC00020010160006800F020000B900B98FFE7C8
:104AD000FFE741F24C00C4F20200016841F001011D
:104AE0000160006800F001000A900A98FFE7FFE704
:104AF00041F24C00C4F20200016841F00201016081
:104B0000006800F0020009900998FFE740F60000F5
:104B1000C4F6000002904FF4604101910022069219
:104B2000FDF7B8F9069A4FF09040049007210391E1
:104B3000FDF7B0F9069A40F20040C4F60000079075
:104B400001210591FDF7A6F9019B0298059A0699A6
:104B50000D930E920F9110910DA90891FCF7DAFFB9
:104B6000DDF80CC00498059B069A0899CDF834C06E
:104B70000E930F921092FCF7CDFF059B069A0798B3
:104B800008990D930E930F921092FCF7C3FF12B089
:104B900080BD000080B59EB0002001901D901C904B
:104BA0001B901A90199018901790169015901490C9
:104BB000139012901190109003A83421FBF7F4FB8E
:104BC000019940F23C10C2F20000029042F600420D
:104BD000C4F20102026041602022826041F29A0226
:104BE000C26001610121416180218161FEF7B0FC59
:104BF00018B1FFE7FBF7B8FCFFE74FF480501A90BD
:104C000040F23C10C2F200001AA9FEF71DFD18B1D7
:104C1000FFE7FBF7A9FCFFE740F23C10C2F20000FF
:104C2000FFF790F818B1FFE7FBF79EFCFFE70020C5
:104C300017901890199040F23C10C2F2000017A98A
:104C4000FEF7E2FB18B1FFE7FBF78EFCFFE77020F1
:104C500010900022119212921392149215921692B1
:104C600040F23C10C2F2000010A9FEF793FF18B109
:104C7000FFE7FBF779FCFFE740F23C10C2F20000CF
:104C800010A90422FEF786FF18B1FFE7FBF76CFCC2
:104C9000FFE740F23C10C2F2000010A90822FEF724
:104CA00079FF18B1FFE7FBF75FFCFFE740F23C102C
:104CB000C2F2000010A90C22FEF76CFF18B1FFE74A
:104CC000FBF752FCFFE70020009003900490059052
:104CD000069007904FF40051089109900A900B90AC
:104CE0004FF000710C910D900E900F9040F23C101F
:104CF000C2F2000003A9FEF7E3FA18B1FFE7FBF7E1
:104D000033FCFFE740F23C10C2F20000FEF70AFF5E
:104D10001EB080BD80B582B040F28810C2F20000A3
:104D2000009043F60001C4F2010101604FF4E1314B
:104D30004160002101918160C16001610C224261EA
:104D40008161C161016241628162FFF70BFC18B1B0
:104D5000FFE7FBF709FCFFE740F28810C2F2000012
:104D60000021FFF7E1F818B1FFE7FBF7FDFBFFE7D4
:104D700040F28810C2F200000021FFF78FF818B14E
:104D8000FFE7FBF7F1FBFFE740F28810C2F20000FB
:104D9000FFF73CF818B1FFE7FBF7E6FBFFE702B0CF
:104DA00080BD0000FFE7FEE7FFE7FEE788B0079061
:104DB00006910592079800F0070004900498C0F14E
:104DC0000700052803D3FFE70420019004E00498BE
:104DD000C0F107000190FFE70198039004980430A8
:104DE000062803D8FFE70020009003E0049803386A
:104DF0000090FFE70098029006980399012202FABA
:104E000001F101390840029B984005999A40013A06
:104E10001140084308B070477047000086B041F267
:104E20000C00C4F20200016801F003010491006863
:104E3000C1B2012000EB11100290049800900228EA
:104E400015D0FFE70098032812D1FFE7029942F23C
:104E50000040C0F2F400B0FBF1F041F20C01C4F2EA
:104E600002010968C1F306214843059011E0FFE7FC
:104E7000029942F20040C0F2F400B0FBF1F041F2BE
:104E80000C01C4F202010968C1F3062148430590F0
:104E9000FFE741F20C00C4F20200006800F0C061BC
:104EA000022000EB1160039005980399B0FBF1F02C
:104EB0000190019806B070477047000080B582B03D
:104EC000009000980138B0F1807F03D3FFE7012004
:104ED000019019E0009801384EF21401CEF2000161
:104EE00008604FF0FF300F2101F02EFB4EF2180149
:104EF000CEF20001002008604EF21002CEF2000255
:104F0000072111600190FFE7019802B080BD000009
:104F100080B5FCF7DBFF80BD80B594B006A800909B
:104F20003821FBF741FA002005900490039002908D
:104F30000190FDF783F80098022106914FF48072EA
:104F4000099240220A920D910E9104220F9255224D
:104F50001092119112911391FDF7C2FD18B1FFE764
:104F6000FBF702FBFFE70F200190032002900020D7
:104F700003900490059001A80421FDF771FB18B17E
:104F8000FFE7FBF7F1FAFFE714B080BD4EF688515A
:104F9000CEF20001086840F470000860704700001D
:104FA00080B540F23C10C2F20000FEF73BFC80BD31
:104FB00083B002900191029800680090029842F636
:104FC0000041C4F2010188421DD0FFE70298B0F110
:104FD000804F18D0FFE7029840F20041C4F2000170
:104FE000884210D0FFE7029840F60001C4F20001A9
:104FF000884208D0FFE7029843F20041C4F2010161
:1050000088420AD1FFE7009820F0700000900198D4
:105010004168009808430090FFE7029842F600417B
:10502000C4F20101884235D0FFE70298B0F1804F09
:1050300030D0FFE7029840F20041C4F200018842FC
:1050400028D0FFE7029840F60001C4F20001884230
:1050500020D0FFE7029843F20041C4F201018842E8
:1050600018D0FFE7029844F20001C4F2010188421F
:1050700010D0FFE7029844F20041C4F201018842D7
:1050800008D0FFE7029844F60001C4F2010188420B
:105090000AD1FFE7009820F4407000900198C168A1
:1050A000009808430090FFE7009820F080000199E5
:1050B000496908430090019880680299C862019884
:1050C000006802998862029842F60041C4F2010128
:1050D000884220D0FFE7029843F20041C4F2010168
:1050E000884218D0FFE7029844F20001C4F201019F
:1050F000884210D0FFE7029844F20041C4F2010157
:10510000884208D0FFE7029844F60001C4F201018A
:10511000884205D1FFE70198006902990863FFE71B
:105120000299086840F00400086002990120486173
:1051300000980299086003B07047000085B00490A1
:10514000039102920193049880680090009820F4E3
:105150007F40009003980299019A41EA022101439D
:1051600000980843009000980499886005B0704743
:1051700083B00290019102988068009000984FF6E9
:105180008F71CFF6CF7108400090019800990843C5
:1051900040F00700009000980299886003B07047C3
:1051A00085B0049003910498006A01900499086AFC
:1051B00020F001000862049840680090049880691B
:1051C000029002984FF68F71CFF6FE710840029060
:1051D000029820F0030002900398016802980843A7
:1051E0000290019820F002000190039881680198D4
:1051F00008430190049842F60041C4F2010188423C
:1052000020D0FFE7049843F20041C4F20101884234
:1052100018D0FFE7049844F20001C4F2010188426B
:1052200010D0FFE7049844F20041C4F20101884223
:1052300008D0FFE7049844F60001C4F20101884257
:105240000FD1FFE70499086A20F004000862019872
:1052500020F0080001900398C1680198084301906C
:10526000FFE7049842F60041C4F20101884220D0D1
:10527000FFE7049843F20041C4F20101884218D0CC
:10528000FFE7049844F20001C4F20101884210D003
:10529000FFE7049844F20041C4F20101884208D0BB
:1052A000FFE7049844F60001C4F20101884213D1DB
:1052B000FFE7009820F480700090009820F40070C0
:1052C0000090039841690098084300900398816911
:1052D000009808430090FFE70098049948600298FE
:1052E0000499886103984068049948630198049977
:1052F000086205B07047000085B0049003910498DF
:10530000006A01900499086A20F01000086204986D
:1053100040680090049880690290029848F6FF71F6
:10532000CFF6FF6108400290029820F4407002908E
:1053300003980168029840EA01200290019820F049
:105340002000019003988168019840EA01100190C3
:10535000049842F60041C4F20101884229D0FFE7D7
:10536000049843F20041C4F20101884221D0FFE7D2
:10537000049844F20001C4F20101884203D1FFE71E
:105380000020B0B9FFE7049844F20041C4F20101E3
:10539000884203D1FFE7002058B9FFE7049844F69C
:1053A0000001C4F20101884213D1FFE7012080B956
:1053B000FFE70499086A20F040000862019820F095
:1053C000800001900398C168019840EA01100190A3
:1053D000FFE7049842F60041C4F20101884220D060
:1053E000FFE7049843F20041C4F20101884218D05B
:1053F000FFE7049844F20001C4F20101884210D092
:10540000FFE7049844F20041C4F20101884208D049
:10541000FFE7049844F60001C4F20101884215D167
:10542000FFE7009820F480600090009820F400606E
:10543000009003984169009840EA81000090039829
:105440008169009840EA81000090FFE70098049984
:1054500048600298049988610398406804998863B9
:1054600001980499086205B07047000085B0049067
:1054700003910498006A01900499086A20F48070EE
:1054800008620498406800900498C06902900298ED
:105490004FF68F71CFF6FE7108400290029820F00F
:1054A0000300029003980168029808430290019853
:1054B00020F40070019003988168019840EA01206F
:1054C0000190049842F60041C4F20101884229D0BB
:1054D000FFE7049843F20041C4F20101884221D061
:1054E000FFE7049844F20001C4F20101884203D1AD
:1054F000FFE70020B0B9FFE7049844F20041C4F28E
:105500000101884203D1FFE7002058B9FFE7049862
:1055100044F60001C4F20101884213D1FFE70120E3
:1055200080B9FFE70499086A20F480600862019856
:1055300020F4006001900398C168019840EA0120BE
:105540000190FFE7049842F60041C4F2010188424D
:1055500020D0FFE7049843F20041C4F201018842E1
:1055600018D0FFE7049844F20001C4F20101884218
:1055700010D0FFE7049844F20041C4F201018842D0
:1055800008D0FFE7049844F60001C4F20101884204
:1055900015D1FFE7009820F480500090009820F487
:1055A0000050009003984169009840EA0110009073
:1055B00003988169009840EA01100090FFE7009885
:1055C0000499486002980499C86103984068049956
:1055D000C86301980499086205B0704785B00490CB
:1055E00003910498006A01900499086A20F480509D
:1055F00008620498406800900498C069029002987C
:1056000048F6FF71CFF6FF6108400290029820F43F
:105610004070029003980168029840EA01200290CD
:10562000019820F40050019003988168019840EAA5
:1056300001300190049842F60041C4F20101884211
:1056400029D0FFE7049843F20041C4F201018842E7
:1056500021D0FFE7049844F20001C4F2010188421E
:1056600003D1FFE70020B0B9FFE7049844F20041FE
:10567000C4F20101884203D1FFE7002058B9FFE7D7
:10568000049844F60001C4F20101884213D1FFE7F7
:10569000012080B9FFE70499086A20F4804008627D
:1056A000019820F4004001900398C168019840EAF5
:1056B00001300190FFE7049842F60041C4F2010175
:1056C000884220D0FFE7049843F20041C4F2010170
:1056D000884218D0FFE7049844F20001C4F20101A7
:1056E000884210D0FFE7049844F20041C4F201015F
:1056F000884208D0FFE7049844F60001C4F2010193
:10570000884215D1FFE7009820F48040009000986F
:1057100020F40040009003984169009840EA81100D
:10572000009003988169009840EA81100090FFE79B
:1057300000980499486002980499C86103984068E9
:105740000499086401980499086205B07047000044
:1057500085B0049003910498006A01900499086A46
:1057600020F4803008620498406800900498006D2E
:10577000029002984FF68F71CFF6FE7108400290AA
:1057800003980168029808430290019820F40030C1
:10579000019003988168019840EA014001900498C3
:1057A00042F60041C4F20101884220D0FFE704988C
:1057B00043F20041C4F20101884218D0FFE7049887
:1057C00044F20001C4F20101884210D0FFE70498BE
:1057D00044F20041C4F20101884208D0FFE7049876
:1057E00044F60001C4F2010188420BD1FFE70098A2
:1057F00020F48030009003984169009840EA01202D
:105800000090FFE7009804994860029804990865A1
:10581000039840680499886401980499086205B067
:105820007047000085B0049003910498006A0190CD
:105830000499086A20F48010086204984068009077
:105840000498006D0290029848F6FF71CFF6FF6150
:105850000840029003980168029840EA01200290F3
:10586000019820F40010019003988168019840EAA3
:1058700001500190049842F60041C4F201018842AF
:1058800020D0FFE7049843F20041C4F201018842AE
:1058900018D0FFE7049844F20001C4F201018842E5
:1058A00010D0FFE7049844F20041C4F2010188429D
:1058B00008D0FFE7049844F60001C4F201018842D1
:1058C0000BD1FFE7009820F48020009003984169F5
:1058D000009840EA81200090FFE700980499486012
:1058E000029804990865039840680499C86401986F
:1058F0000499086205B0704785B004900391029244
:105900000498006A00900499086A20F00100086277
:10591000049842F60041C4F20101884220D0FFE71A
:10592000049843F20041C4F20101884218D0FFE715
:10593000049844F20001C4F20101884210D0FFE74C
:10594000049844F20041C4F20101884208D0FFE704
:10595000049844F60001C4F20101884206D1FFE731
:105960000499086A20F004000862FFE7049880693F
:105970000190019820F0F00001900299019840EA0E
:1059800001100190009820F00A00009003990098FF
:10599000084300900198049988610098049908626E
:1059A00005B0704785B00490039102920498006A94
:1059B00000900499086A20F010000862049842F6EA
:1059C0000041C4F20101884229D0FFE7049843F264
:1059D0000041C4F20101884221D0FFE7049844F25B
:1059E0000001C4F20101884203D1FFE70020B0B9F1
:1059F000FFE7049844F20041C4F20101884203D158
:105A0000FFE7002058B9FFE7049844F60001C4F20C
:105A10000101884209D1FFE7012030B9FFE704996D
:105A2000086A20F040000862FFE70498806901904E
:105A3000019820F4704001900299019840EA0130E9
:105A40000190009820F0A00000900399009840EA8F
:105A500001100090019804998861009804990862E7
:105A600005B0704782B001900198406E40B9FFE7E1
:105A700001990120A1F86A000199A1F8680032E0BB
:105A800008208DF803008DF80200019800688068F6
:105A9000C0F342608DF80100019800688068400FF3
:105AA0008DF800009DF802009DF8002046F22A6360
:105AB000C0F60003995C484346F22261C0F600013B
:105AC0008A5CB0FBF2F0019AA2F86A009DF803002C
:105AD0009DF801209B5C5843895CB0FBF1F0019973
